{"abi":[{"type":"function","name":"name","inputs":[],"outputs":[{"name":"","type":"string","internalType":"string"}],"stateMutability":"pure"}],"bytecode":{"object":"0x6080604052348015600f57600080fd5b5060e48061001e6000396000f3fe6080604052348015600f57600080fd5b506004361060285760003560e01c806306fdde0314602d575b600080fd5b604080518082018252600b81526a12195b1b1bc815dbdc9b1960aa1b60208201529051605891906061565b60405180910390f35b60006020808352835180602085015260005b81811015608d578581018301518582016040015282016073565b506000604082860101526040601f19601f830116850101925050509291505056fea26469706673582212208831e9cf5906249da2d5c226b16c1d2008124c5b34652f8cd379b4bdee6015f664736f6c63430008190033","linkReferences":{}},"methodIdentifiers":{"name()":"06fdde03"},"id":24}