{"abi":[{"type":"function","name":"backrun","inputs":[{"name":"router","type":"address","internalType":"address"},{"name":"weth","type":"address","internalType":"address"},{"name":"usdc","type":"address","internalType":"address"}],"outputs":[],"stateMutability":"nonpayable"},{"type":"function","name":"frontrun","inputs":[{"name":"router","type":"address","internalType":"address"},{"name":"weth","type":"address","internalType":"address"},{"name":"usdc","type":"address","internalType":"address"}],"outputs":[],"stateMutability":"nonpayable"}],"bytecode":{"object":"0x6080604052348015600f57600080fd5b5060d680601d6000396000f3fe6080604052348015600f57600080fd5b506004361060325760003560e01c806307965b271460375780636ebdd567146037575b600080fd5b604760423660046064565b505050565b005b80356001600160a01b0381168114605f57600080fd5b919050565b600080600060608486031215607857600080fd5b607f846049565b9250608b602085016049565b91506097604085016049565b9050925092509256fea264697066735822122004b110fd7ce5ab1b84afc3400b6a78015838d2927eb913254c594b2f8685771f64736f6c63430008190033","linkReferences":{}},"methodIdentifiers":{"backrun(address,address,address)":"6ebdd567","frontrun(address,address,address)":"07965b27"},"id":29}