{"abi":[{"type":"constructor","inputs":[{"name":"_router","type":"address","internalType":"address"}],"stateMutability":"nonpayable"},{"type":"function","name":"performSwap","inputs":[{"name":"path","type":"address[]","internalType":"address[]"}],"outputs":[],"stateMutability":"nonpayable"},{"type":"function","name":"router","inputs":[],"outputs":[{"name":"","type":"address","internalType":"address"}],"stateMutability":"view"}],"bytecode":{"object":"0x60a0604052348015600f57600080fd5b506040516103f23803806103f2833981016040819052602c91603c565b6001600160a01b0316608052606a565b600060208284031215604d57600080fd5b81516001600160a01b0381168114606357600080fd5b9392505050565b60805161036861008a6000396000818160550152609d01526103686000f3fe608060405234801561001057600080fd5b50600436106100365760003560e01c80637fb678921461003b578063f887ea4014610050575b600080fd5b61004e610049366004610149565b610093565b005b6100777f000000000000000000000000000000000000000000000000000000000000000081565b6040516001600160a01b03909116815260200160405180910390f35b6001600160a01b037f0000000000000000000000000000000000000000000000000000000000000000166338ed1739683635c9adc5dea0000060008585306100dc42603c6101be565b6040518763ffffffff1660e01b81526004016100fd969594939291906101e5565b6000604051808303816000875af115801561011c573d6000803e3d6000fd5b505050506040513d6000823e601f3d908101601f191682016040526101449190810190610274565b505050565b6000806020838503121561015c57600080fd5b823567ffffffffffffffff8082111561017457600080fd5b818501915085601f83011261018857600080fd5b81358181111561019757600080fd5b8660208260051b85010111156101ac57600080fd5b60209290920196919550909350505050565b808201808211156101df57634e487b7160e01b600052601160045260246000fd5b92915050565b868152602080820187905260a0604083018190528201859052600090869060c0840183805b8981101561023c5784356001600160a01b038116808214610229578384fd5b845250938301939183019160010161020a565b50506001600160a01b0396909616606085015250505060800152949350505050565b634e487b7160e01b600052604160045260246000fd5b6000602080838503121561028757600080fd5b825167ffffffffffffffff8082111561029f57600080fd5b818501915085601f8301126102b357600080fd5b8151818111156102c5576102c561025e565b8060051b604051601f19603f830116810181811085821117156102ea576102ea61025e565b60405291825284820192508381018501918883111561030857600080fd5b938501935b828510156103265784518452938501939285019261030d565b9897505050505050505056fea2646970667358221220ca5b4572a91cf7ccc11d1380d63f3969ce45a4901067cd06754ccc7cb4be56b964736f6c63430008190033","linkReferences":{}},"methodIdentifiers":{"performSwap(address[])":"7fb67892","router()":"f887ea40"},"id":29}