{"abi":[{"type":"function","name":"sayHelloWorld","inputs":[{"name":"token","type":"address","internalType":"address"}],"outputs":[{"name":"","type":"string","internalType":"string"}],"stateMutability":"view"}],"bytecode":{"object":"0x6080604052348015600f57600080fd5b506102478061001f6000396000f3fe608060405234801561001057600080fd5b506004361061002b5760003560e01c80637b31623514610030575b600080fd5b61004361003e3660046100c7565b610059565b604051610050919061011b565b60405180910390f35b6060816001600160a01b03166306fdde036040518163ffffffff1660e01b8152600401600060405180830381865afa158015610099573d6000803e3d6000fd5b505050506040513d6000823e601f3d908101601f191682016040526100c19190810190610164565b92915050565b6000602082840312156100d957600080fd5b81356001600160a01b03811681146100f057600080fd5b9392505050565b60005b838110156101125781810151838201526020016100fa565b50506000910152565b602081526000825180602084015261013a8160408501602087016100f7565b601f01601f19169190910160400192915050565b634e487b7160e01b600052604160045260246000fd5b60006020828403121561017657600080fd5b815167ffffffffffffffff8082111561018e57600080fd5b818401915084601f8301126101a257600080fd5b8151818111156101b4576101b461014e565b604051601f8201601f19908116603f011681019083821181831017156101dc576101dc61014e565b816040528281528760208487010111156101f557600080fd5b6102068360208301602088016100f7565b97965050505050505056fea2646970667358221220f1ca86649a2b17c8fb3be4bd062d508893718359bf73d629ba9af044cf9a797264736f6c63430008190033","linkReferences":{}},"methodIdentifiers":{"sayHelloWorld(address)":"7b316235"},"id":23}