{"abi":[{"type":"constructor","inputs":[{"name":"_router","type":"address","internalType":"address"},{"name":"_pool","type":"address","internalType":"address"}],"stateMutability":"nonpayable"},{"type":"receive","stateMutability":"payable"},{"type":"function","name":"addLiquidityWithRouter","inputs":[{"name":"usdcAddress","type":"address","internalType":"address"}],"outputs":[],"stateMutability":"nonpayable"},{"type":"function","name":"pool","inputs":[],"outputs":[{"name":"","type":"address","internalType":"address"}],"stateMutability":"view"},{"type":"function","name":"router","inputs":[],"outputs":[{"name":"","type":"address","internalType":"address"}],"stateMutability":"view"}],"bytecode":{"object":"0x60c0604052348015600f57600080fd5b50604051610645380380610645833981016040819052602c91605d565b6001600160a01b039182166080521660a052608b565b80516001600160a01b0381168114605857600080fd5b919050565b60008060408385031215606f57600080fd5b6076836042565b91506082602084016042565b90509250929050565b60805160a05161057c6100c96000396000818160560152818160ef015261018301526000818160c80152818161029c0152610363015261057c6000f3fe6080604052600436106100385760003560e01c806316f0115b14610044578063df7ec73714610094578063f887ea40146100b657600080fd5b3661003f57005b600080fd5b34801561005057600080fd5b506100787f000000000000000000000000000000000000000000000000000000000000000081565b6040516001600160a01b03909116815260200160405180910390f35b3480156100a057600080fd5b506100b46100af366004610403565b6100ea565b005b3480156100c257600080fd5b506100787f000000000000000000000000000000000000000000000000000000000000000081565b6000807f00000000000000000000000000000000000000000000000000000000000000006001600160a01b0316630902f1ac6040518163ffffffff1660e01b8152600401606060405180830381865afa15801561014b573d6000803e3d6000fd5b505050506040513d601f19601f8201168201806040525081019061016f9190610443565b5091509150600080846001600160a01b03167f00000000000000000000000000000000000000000000000000000000000000006001600160a01b0316630dfe16816040518163ffffffff1660e01b8152600401602060405180830381865afa1580156101df573d6000803e3d6000fd5b505050506040513d601f19601f820116820180604052508101906102039190610493565b6001600160a01b0316036102265750506001600160701b03818116908316610237565b50506001600160701b038281169082165b633b9aca006000606461024b8360636104c6565b61025591906104e3565b9050600060648461026687866104c6565b61027091906104e3565b61027b9060636104c6565b61028591906104e3565b60405163095ea7b360e01b81526001600160a01b037f000000000000000000000000000000000000000000000000000000000000000081166004830152602482018690529192509089169063095ea7b390604401600060405180830381600087803b1580156102f357600080fd5b505af1158015610307573d6000803e3d6000fd5b503392506000915061031d905042610384610505565b60405163f305d71960e01b81526001600160a01b038c81166004830152602482018890526044820187905260648201869052848116608483015260a482018390529192507f00000000000000000000000000000000000000000000000000000000000000009091169063f305d71990670de0b6b3a76400009060c40160606040518083038185885af11580156103b7573d6000803e3d6000fd5b50505050506040513d601f19601f820116820180604052508101906103dc9190610518565b50505050505050505050505050565b6001600160a01b038116811461040057600080fd5b50565b60006020828403121561041557600080fd5b8135610420816103eb565b9392505050565b80516001600160701b038116811461043e57600080fd5b919050565b60008060006060848603121561045857600080fd5b61046184610427565b925061046f60208501610427565b9150604084015163ffffffff8116811461048857600080fd5b809150509250925092565b6000602082840312156104a557600080fd5b8151610420816103eb565b634e487b7160e01b600052601160045260246000fd5b80820281158282048414176104dd576104dd6104b0565b92915050565b60008261050057634e487b7160e01b600052601260045260246000fd5b500490565b808201808211156104dd576104dd6104b0565b60008060006060848603121561052d57600080fd5b835192506020840151915060408401519050925092509256fea264697066735822122042de34dd09778e426ebe69a5e7de7b7121536cbdeaa4b0b50b0499ffd61425e964736f6c63430008190033","linkReferences":{}},"methodIdentifiers":{"addLiquidityWithRouter(address)":"df7ec737","pool()":"16f0115b","router()":"f887ea40"},"id":23}