{"abi":[{"type":"constructor","inputs":[{"name":"_flashLenderPool","type":"address","internalType":"address"},{"name":"_weth","type":"address","internalType":"address"},{"name":"_usdc","type":"address","internalType":"address"},{"name":"_usdt","type":"address","internalType":"address"},{"name":"_router","type":"address","internalType":"address"}],"stateMutability":"nonpayable"},{"type":"function","name":"flashLenderPool","inputs":[],"outputs":[{"name":"","type":"address","internalType":"address"}],"stateMutability":"view"},{"type":"function","name":"flashLoaned","inputs":[],"outputs":[{"name":"","type":"bool","internalType":"bool"}],"stateMutability":"view"},{"type":"function","name":"performArbitrage","inputs":[],"outputs":[],"stateMutability":"nonpayable"},{"type":"function","name":"router","inputs":[],"outputs":[{"name":"","type":"address","internalType":"address"}],"stateMutability":"view"},{"type":"function","name":"uniswapV3FlashCallback","inputs":[{"name":"_fee0","type":"uint256","internalType":"uint256"},{"name":"","type":"uint256","internalType":"uint256"},{"name":"data","type":"bytes","internalType":"bytes"}],"outputs":[],"stateMutability":"nonpayable"},{"type":"function","name":"usdc","inputs":[],"outputs":[{"name":"","type":"address","internalType":"address"}],"stateMutability":"view"},{"type":"function","name":"usdt","inputs":[],"outputs":[{"name":"","type":"address","internalType":"address"}],"stateMutability":"view"},{"type":"function","name":"weth","inputs":[],"outputs":[{"name":"","type":"address","internalType":"address"}],"stateMutability":"view"}],"bytecode":{"object":"0x61012060405234801561001157600080fd5b5060405161050338038061050383398101604081905261003091610075565b6001600160a01b0394851660805292841660a05290831660c052821660e05216610100526100da565b80516001600160a01b038116811461007057600080fd5b919050565b600080600080600060a0868803121561008d57600080fd5b61009686610059565b94506100a460208701610059565b93506100b260408701610059565b92506100c060608701610059565b91506100ce60808701610059565b90509295509295909350565b60805160a05160c05160e051610100516103da610129600039600061017d01526000609401526000818160d801526101c50152600060ff015260008181610143015261024501526103da6000f3fe608060405234801561001057600080fd5b50600436106100885760003560e01c8063a2be76be1161005b578063a2be76be14610121578063a615a3ce1461013e578063e9cbafb014610165578063f887ea401461017857600080fd5b806312f399cf1461008d5780632f48ab7d1461008f5780633e413bee146100d35780633fc8cef3146100fa575b600080fd5b005b6100b67f000000000000000000000000000000000000000000000000000000000000000081565b6040516001600160a01b0390911681526020015b60405180910390f35b6100b67f000000000000000000000000000000000000000000000000000000000000000081565b6100b67f000000000000000000000000000000000000000000000000000000000000000081565b60005461012e9060ff1681565b60405190151581526020016100ca565b6100b67f000000000000000000000000000000000000000000000000000000000000000081565b61008d61017336600461030b565b61019f565b6100b67f000000000000000000000000000000000000000000000000000000000000000081565b6101a76101ad565b50505050565b6040516370a0823160e01b81523060048201526000907f00000000000000000000000000000000000000000000000000000000000000006001600160a01b0316906370a0823190602401602060405180830381865afa158015610214573d6000803e3d6000fd5b505050506040513d601f19601f82011682018060405250810190610238919061038b565b9050336001600160a01b037f000000000000000000000000000000000000000000000000000000000000000016146102a65760405162461bcd60e51b815260206004820152600c60248201526b6e6f742063616c6c6261636b60a01b60448201526064015b60405180910390fd5b6000805460ff1916633b9aca008310159081179091556103085760405162461bcd60e51b815260206004820152601f60248201527f466c6173684c6f616e206c657373207468616e20312c30303020555344432e00604482015260640161029d565b50565b6000806000806060858703121561032157600080fd5b8435935060208501359250604085013567ffffffffffffffff8082111561034757600080fd5b818701915087601f83011261035b57600080fd5b81358181111561036a57600080fd5b88602082850101111561037c57600080fd5b95989497505060200194505050565b60006020828403121561039d57600080fd5b505191905056fea26469706673582212203e77f7a8aeb3bd40b0397226d394f09d56eff8863f25f0b786e0d84b530de40264736f6c63430008190033","linkReferences":{}},"methodIdentifiers":{"flashLenderPool()":"a615a3ce","flashLoaned()":"a2be76be","performArbitrage()":"12f399cf","router()":"f887ea40","uniswapV3FlashCallback(uint256,uint256,bytes)":"e9cbafb0","usdc()":"3e413bee","usdt()":"2f48ab7d","weth()":"3fc8cef3"},"id":28}