{"abi":[{"type":"constructor","inputs":[{"name":"_weth","type":"address","internalType":"address"},{"name":"_usdc","type":"address","internalType":"address"}],"stateMutability":"nonpayable"},{"type":"function","name":"getAmountOut","inputs":[{"name":"amountIn","type":"uint256","internalType":"uint256"},{"name":"reserveIn","type":"uint112","internalType":"uint112"},{"name":"reserveOut","type":"uint112","internalType":"uint112"}],"outputs":[{"name":"amountOut","type":"uint256","internalType":"uint256"}],"stateMutability":"pure"},{"type":"function","name":"performSwap","inputs":[{"name":"pool","type":"address","internalType":"address"}],"outputs":[],"stateMutability":"nonpayable"},{"type":"function","name":"usdc","inputs":[],"outputs":[{"name":"","type":"address","internalType":"address"}],"stateMutability":"view"},{"type":"function","name":"weth","inputs":[],"outputs":[{"name":"","type":"address","internalType":"address"}],"stateMutability":"view"}],"bytecode":{"object":"0x6080604052348015600f57600080fd5b506040516106ea3803806106ea833981016040819052602c916077565b600080546001600160a01b039384166001600160a01b0319918216179091556001805492909316911617905560a5565b80516001600160a01b0381168114607257600080fd5b919050565b60008060408385031215608957600080fd5b609083605c565b9150609c60208401605c565b90509250929050565b610636806100b46000396000f3fe608060405234801561001057600080fd5b506004361061004c5760003560e01c80633e413bee146100515780633fc8cef3146100815780639077890014610094578063d620dcdf146100a9575b600080fd5b600154610064906001600160a01b031681565b6040516001600160a01b0390911681526020015b60405180910390f35b600054610064906001600160a01b031681565b6100a76100a2366004610404565b6100ca565b005b6100bc6100b736600461043d565b61038b565b604051908152602001610078565b600080546040516370a0823160e01b81523060048201526001600160a01b03909116906370a0823190602401602060405180830381865afa158015610113573d6000803e3d6000fd5b505050506040513d601f19601f82011682018060405250810190610137919061047f565b60005460405163095ea7b360e01b81526001600160a01b0385811660048301526024820184905292935091169063095ea7b390604401600060405180830381600087803b15801561018757600080fd5b505af115801561019b573d6000803e3d6000fd5b50505050600080836001600160a01b0316630902f1ac6040518163ffffffff1660e01b8152600401606060405180830381865afa1580156101e0573d6000803e3d6000fd5b505050506040513d601f19601f820116820180604052508101906102049190610498565b509150915060008060009054906101000a90046001600160a01b03166001600160a01b0316856001600160a01b0316630dfe16816040518163ffffffff1660e01b8152600401602060405180830381865afa158015610267573d6000803e3d6000fd5b505050506040513d601f19601f8201168201806040525081019061028b91906104e3565b6001600160a01b0316146102b1576001546000546001600160a01b0391821691166102c5565b6000546001546001600160a01b0391821691165b50905060006102d585858561038b565b6000549091506001600160a01b038088169163022c0d9f918581169116146102fd5782610300565b60005b6000546001600160a01b0386811691161461031c57600061031e565b835b604080516000815260208101918290526001600160e01b031960e086901b16909152610351929190309060248101610500565b600060405180830381600087803b15801561036b57600080fd5b505af115801561037f573d6000803e3d6000fd5b50505050505050505050565b60008061039a856103e5610583565b905060006103b16001600160701b03851683610583565b90506000826103c2876103e86105a0565b6001600160701b03166103d591906105cb565b90506103e181836105de565b979650505050505050565b6001600160a01b038116811461040157600080fd5b50565b60006020828403121561041657600080fd5b8135610421816103ec565b9392505050565b6001600160701b038116811461040157600080fd5b60008060006060848603121561045257600080fd5b83359250602084013561046481610428565b9150604084013561047481610428565b809150509250925092565b60006020828403121561049157600080fd5b5051919050565b6000806000606084860312156104ad57600080fd5b83516104b881610428565b60208501519093506104c981610428565b604085015190925063ffffffff8116811461047457600080fd5b6000602082840312156104f557600080fd5b8151610421816103ec565b8481526000602085602084015260018060a01b038516604084015260806060840152835180608085015260005b818110156105495785810183015185820160a00152820161052d565b50600060a0828601015260a0601f19601f8301168501019250505095945050505050565b634e487b7160e01b600052601160045260246000fd5b808202811582820484141761059a5761059a61056d565b92915050565b6001600160701b038181168382160280821691908281146105c3576105c361056d565b505092915050565b8082018082111561059a5761059a61056d565b6000826105fb57634e487b7160e01b600052601260045260246000fd5b50049056fea2646970667358221220fe17066c1f15e88fa47661a879b47dc57f2a249344a93d9f1ce9cc599a181f4464736f6c63430008190033","linkReferences":{}},"methodIdentifiers":{"getAmountOut(uint256,uint112,uint112)":"d620dcdf","performSwap(address)":"90778900","usdc()":"3e413bee","weth()":"3fc8cef3"},"id":23}