{"abi":[{"type":"constructor","inputs":[{"name":"_weth","type":"address","internalType":"address"},{"name":"_usdc","type":"address","internalType":"address"}],"stateMutability":"nonpayable"},{"type":"function","name":"getAmountOut","inputs":[{"name":"amountIn","type":"uint256","internalType":"uint256"},{"name":"reserveIn","type":"uint112","internalType":"uint112"},{"name":"reserveOut","type":"uint112","internalType":"uint112"}],"outputs":[{"name":"amountOut","type":"uint256","internalType":"uint256"}],"stateMutability":"pure"},{"type":"function","name":"performSwap","inputs":[{"name":"pool","type":"address","internalType":"address"}],"outputs":[],"stateMutability":"nonpayable"},{"type":"function","name":"usdc","inputs":[],"outputs":[{"name":"","type":"address","internalType":"address"}],"stateMutability":"view"},{"type":"function","name":"weth","inputs":[],"outputs":[{"name":"","type":"address","internalType":"address"}],"stateMutability":"view"}],"bytecode":{"object":"0x6080604052348015600f57600080fd5b506040516106b83803806106b8833981016040819052602c916077565b600080546001600160a01b039384166001600160a01b0319918216179091556001805492909316911617905560a5565b80516001600160a01b0381168114607257600080fd5b919050565b60008060408385031215608957600080fd5b609083605c565b9150609c60208401605c565b90509250929050565b610604806100b46000396000f3fe608060405234801561001057600080fd5b506004361061004c5760003560e01c80633e413bee146100515780633fc8cef3146100815780639077890014610094578063d620dcdf146100a9575b600080fd5b600154610064906001600160a01b031681565b6040516001600160a01b0390911681526020015b60405180910390f35b600054610064906001600160a01b031681565b6100a76100a23660046103d2565b6100ca565b005b6100bc6100b736600461040b565b610359565b604051908152602001610078565b600080546040516370a0823160e01b8152306004820152612710916001600160a01b0316906370a0823190602401602060405180830381865afa158015610115573d6000803e3d6000fd5b505050506040513d601f19601f82011682018060405250810190610139919061044d565b610143919061047c565b60005460405163095ea7b360e01b81526001600160a01b0385811660048301526024820184905292935091169063095ea7b390604401600060405180830381600087803b15801561019357600080fd5b505af11580156101a7573d6000803e3d6000fd5b50505050600080836001600160a01b0316630902f1ac6040518163ffffffff1660e01b8152600401606060405180830381865afa1580156101ec573d6000803e3d6000fd5b505050506040513d601f19601f82011682018060405250810190610210919061049e565b50915091506000846001600160a01b0316630dfe16816040518163ffffffff1660e01b8152600401602060405180830381865afa158015610255573d6000803e3d6000fd5b505050506040513d601f19601f8201168201806040525081019061027991906104e9565b6001549091506001600160a01b0390811690821603610296579091905b60006102a3858585610359565b6000549091506001600160a01b038088169163022c0d9f918581169116146102cb57826102ce565b60005b6000546001600160a01b038681169116146102ea5760006102ec565b835b604080516000815260208101918290526001600160e01b031960e086901b1690915261031f929190309060248101610506565b600060405180830381600087803b15801561033957600080fd5b505af115801561034d573d6000803e3d6000fd5b50505050505050505050565b600080610368856103e5610573565b9050600061037f6001600160701b03851683610573565b9050600082610390876103e8610590565b6001600160701b03166103a391906105bb565b90506103af818361047c565b979650505050505050565b6001600160a01b03811681146103cf57600080fd5b50565b6000602082840312156103e457600080fd5b81356103ef816103ba565b9392505050565b6001600160701b03811681146103cf57600080fd5b60008060006060848603121561042057600080fd5b833592506020840135610432816103f6565b91506040840135610442816103f6565b809150509250925092565b60006020828403121561045f57600080fd5b5051919050565b634e487b7160e01b600052601160045260246000fd5b60008261049957634e487b7160e01b600052601260045260246000fd5b500490565b6000806000606084860312156104b357600080fd5b83516104be816103f6565b60208501519093506104cf816103f6565b604085015190925063ffffffff8116811461044257600080fd5b6000602082840312156104fb57600080fd5b81516103ef816103ba565b8481526000602085602084015260018060a01b038516604084015260806060840152835180608085015260005b8181101561054f5785810183015185820160a001528201610533565b50600060a0828601015260a0601f19601f8301168501019250505095945050505050565b808202811582820484141761058a5761058a610466565b92915050565b6001600160701b038181168382160280821691908281146105b3576105b3610466565b505092915050565b8082018082111561058a5761058a61046656fea2646970667358221220a25e54dd6a19a7514112e8e4f16834bada0cb36c27fa2f024bfe2c9b2e808a5064736f6c63430008190033","linkReferences":{}},"methodIdentifiers":{"getAmountOut(uint256,uint112,uint112)":"d620dcdf","performSwap(address)":"90778900","usdc()":"3e413bee","weth()":"3fc8cef3"},"id":23}