{"abi":[{"type":"function","name":"addLiquidity","inputs":[{"name":"usdc","type":"address","internalType":"address"},{"name":"weth","type":"address","internalType":"address"},{"name":"pool","type":"address","internalType":"address"},{"name":"usdcReserve","type":"uint256","internalType":"uint256"},{"name":"wethReserve","type":"uint256","internalType":"uint256"}],"outputs":[],"stateMutability":"nonpayable"}],"bytecode":{"object":"0x6080604052348015600f57600080fd5b5061049b8061001f6000396000f3fe608060405234801561001057600080fd5b506004361061002b5760003560e01c80634ea5efef14610030575b600080fd5b61004361003e366004610381565b610045565b005b8260008361005784633b9aca006103d6565b6100619190610401565b6040516370a0823160e01b81523060048201529091506000906001600160a01b038916906370a0823190602401602060405180830381865afa1580156100ab573d6000803e3d6000fd5b505050506040513d601f19601f820116820180604052508101906100cf9190610423565b6040516370a0823160e01b81523060048201529091506000906001600160a01b038916906370a0823190602401602060405180830381865afa158015610119573d6000803e3d6000fd5b505050506040513d601f19601f8201168201806040525081019061013d9190610423565b9050633b9aca008210156101a65760405162461bcd60e51b815260206004820152602560248201527f496e73756666696369656e7420555344432062616c616e636520696e20636f6e6044820152641d1c9858dd60da1b60648201526084015b60405180910390fd5b828110156102045760405162461bcd60e51b815260206004820152602560248201527f496e73756666696369656e7420574554482062616c616e636520696e20636f6e6044820152641d1c9858dd60da1b606482015260840161019d565b60405163a9059cbb60e01b81526001600160a01b038881166004830152633b9aca0060248301528a169063a9059cbb906044016020604051808303816000875af1158015610256573d6000803e3d6000fd5b505050506040513d601f19601f8201168201806040525081019061027a919061043c565b5060405163a9059cbb60e01b81526001600160a01b0388811660048301526024820185905289169063a9059cbb906044016020604051808303816000875af11580156102ca573d6000803e3d6000fd5b505050506040513d601f19601f820116820180604052508101906102ee919061043c565b506040516335313c2160e11b81523360048201526001600160a01b03851690636a627842906024016020604051808303816000875af1158015610335573d6000803e3d6000fd5b505050506040513d601f19601f820116820180604052508101906103599190610423565b50505050505050505050565b80356001600160a01b038116811461037c57600080fd5b919050565b600080600080600060a0868803121561039957600080fd5b6103a286610365565b94506103b060208701610365565b93506103be60408701610365565b94979396509394606081013594506080013592915050565b80820281158282048414176103fb57634e487b7160e01b600052601160045260246000fd5b92915050565b60008261041e57634e487b7160e01b600052601260045260246000fd5b500490565b60006020828403121561043557600080fd5b5051919050565b60006020828403121561044e57600080fd5b8151801515811461045e57600080fd5b939250505056fea26469706673582212208a49d0baa042eb8c5c809b810dd6df1801ee12bea7d61c0f7fc703ed4f99d3a464736f6c63430008190033","linkReferences":{}},"methodIdentifiers":{"addLiquidity(address,address,address,uint256,uint256)":"4ea5efef"},"id":23}